:020000041000EA
:10E0000000000220D10E0110050D01100F0F0110AC
:10E01000110F0110130F0110150F01100000000067
:10E02000000000000000000000000000170F0110B9
:10E03000190F0110000000001B0F01101D0F01102F
:10E04000210F0110230F0110250F0110270F0110C0
:10E05000B1E200102B0F01102D0F01102F0F011036
:10E06000310F0110330F0110350F0110370F011060
:10E07000390F01103B0F01103D0F01103F0F011030
:10E08000410F0110430F0110450F0110470F011000
:10E09000490F01104B0F01104D0F01104F0F0110D0
:10E0A000890C0110910C0110550F0110570F011030
:10E0B000590F01105B0F01105D0F01105F0F011070
:10E0C000610F0110630F0110650F0110670F011040
:10E0D000690F01106B0F01106D0F01106F0F011010
:10E0E000710F0110730F0110750F0110770F0110E0
:10E0F000790F01107B0F01107D0F01107F0F0110B0
:10E10000810F0110830F0110850F0110870F01107F
:10E11000890F01108B0F01108D0F01108F0F01104F
:10E12000910F0110930F0110950F0110970F01101F
:10E13000990F01109B0F01109D0F01109F0F0110EF
:10E14000A10F0110A30F0110A50F0110A70F0110BF
:10E15000A90F0110AB0F0110AD0F0110AF0F01108F
:10E16000B10F0110B30F0110B50F0110B70F01105F
:10E17000B90F0110BB0F0110BD0F0110BF0F01102F
:10E18000C10F0110C30F0110C50F0110C70F0110FF
:10E19000C90F0110CB0F0110CD0F0110CF0F0110CF
:10E1A000D10F0110D30F0110D50F0110D70F01109F
:10E1B000D90F0110DB0F0110DD0F0110DF0F01106F
:10E1C000E10F0110E30F0110E50F0110E70F01103F
:10E1D000E90F0110EB0F0110ED0F0110EF0F01100F
:10E1E000000000000000000000000000000000002F
:10E1F000000000000000000000000000000000001F
:10E2000000488047D10E01100348044B834202D0DE
:10E21000034B03B118477047080700200807002088
:10E22000000000000548064B1B1AD90F01EBA301A3
:10E23000491002D0034B03B118477047080700206C
:10E24000080700200000000010B5064C237843B9F1
:10E25000FFF7DAFF044B13B10448AFF3008001234A
:10E26000237010BD000800200000000090DD0110A8
:10E2700008B5054B1BB105490548AFF30080BDE863
:10E280000840FFF7CFBF00BF0000000004080020D7
:10E2900090DD011038B504460D4603F073FD2946A4
:10E2A000204603F08DFDBDE8384003F073BD00BF8C
:10E2B00003F07ABD00F020BCC0B2704710B5094C25
:10E2C000636918700246E06807F08AFE236900223D
:10E2D0001A7022691378002BFCD0636800221A7030
:10E2E00010BD00BF2800002038B5084D6A681378BB
:10E2F000002BFCD0AB6829681C78E4B2224607F0FA
:10E300006FFE6B6800221A70204638BD280000207E
:10E3100010B50D4CC0B00A466B464FF4807100F04A
:10E3200065FA6369FF221A70E068694607F058FED3
:10E33000236900221A7022691378002BFCD06368CD
:10E3400000221A7040B010BD28000020F0B5314FF7
:10E350007A68C3B004460D461378002BFCD0BB6826
:10E3600039681E78F6B23246204607F039FE7A68E0
:10E370000023137004F1400E0093019323460AE03A
:10E38000BCF1440F04D193F801C0BCF1450F2ED06D
:10E3900004339E4515D093F800C0BCF1420FEFD175
:10E3A00093F801C0BCF1450FF2D19A78452AEFD11C
:10E3B000DA78462AECD1009A043301329E45009265
:10E3C000E9D1009B102B1CD0019B102B1DD02A469D
:10E3D00002AB4FF48071204600F032FA4FF48072A5
:10E3E00002A9204607F0FCFD304643B0F0BD9A7804
:10E3F000412ACDD1DA78442ACAD1019A0132019258
:10E40000C6E70126304643B0F0BD0226304643B091
:10E41000F0BD00BF2800002008B5002002F01CFD60
:10E42000012002F019FD022002F016FD124C00201E
:10E4300002F0F2FC204602F00DFF012002F0ECFC9D
:10E44000204602F007FF022002F0E6FC204602F020
:10E4500001FF002002F000FD204602F0FBFE01203B
:10E4600002F0FAFC204602F0F5FE022002F0F4FC75
:10E47000204602F0EFFEDAE720A1070070B5234C3A
:10E480006378A278A3F19903B3FA83F3882A4FEA59
:10E49000531304D0BDE870401D4806F069BBE27814
:10E4A000772AF7D12279202AF4D1002BF2D0194D06
:10E4B000194EF4220021284606F026FA0323D4F848
:10E4C0000510D4F8092005F80C3C144B45F8071C3E
:10E4D00045F8032C45F80B3C0FCEC5F80900C5F8EC
:10E4E0000D10C5F8112007CEC5F81530C5F8190074
:10E4F0003378C5F81D10A5F10C000949C5F8212095
:10E5000085F82530FFF704FFFFF786FF080A002093
:10E5100050B501101409002088B5011099887720A2
:10E520000C0B00200E4B10B50021F422184606F00B
:10E53000EBF90C4A0C4CD2F80510D2F8092003462E
:10E54000012003F80C0C43F8071C43F8032C43F894
:10E550000B4CBDE81040A3F10C01FF20FFF7AEBE4D
:10E5600014090020080A00209988772030B5254C2E
:10E570006378A278A3F19903B3FA83F3882A83B06E
:10E580004FEA531305D0204803B0BDE8304006F0F1
:10E59000EFBAE278772AF6D12279202A03F1020332
:10E5A000F1D1022BEFD0EB220021184806F0ACF994
:10E5B00017480090174B184A1849144804F00AF8F5
:10E5C000174812490023C0E9003303720422D4F82B
:10E5D000053000F80C2C40F8073CD4F80920114B0A
:10E5E00040F8032CA0F10C0540F80B3CEB2209305D
:10E5F00007F0F6FC0C49284603B0BDE83040FFF7B1
:10E6000087BE00BF080A002050B501101C0800207A
:10E61000D4B50110A8B50110B0B50110BCB50110FA
:10E6200014090020998877200C0B002010B54FF4B6
:10E6300080720021184806F067F918491648FFF75C
:10E6400085FE012824D0164C0228237813D0D3B19C
:10E65000114B197802290AD0042904D0BDE81040D2
:10E66000104806F085BABDE81040FFF77FBFBDE84F
:10E670001040FFF703BF002BEAD1084800F096F8DE
:10E680000123237010BDBDE81040074806F070BAA2
:10E69000BDE81040FFF746BF080A00200C0B002021
:10E6A000080B0020F8B50110E0B5011008B50E48C0
:10E6B00006F0BEFA0D4803F043FB62B60C48FFF7C4
:10E6C000FBFDFFF7F7FD0B481021FFF7E3FD0A48BC
:10E6D0001021FFF7DFFD094B002201201A7002F024
:10E6E0009BFBFFF7A3FFFCE724B6011000A002404C
:10E6F000207788990C0B002000000020080B0020D8
:10E7000070B50C4686B01549102201AB064620466E
:10E7100000F038FA234610221048114900F032FA6E
:10E7200021461020FFF7CAFD2046FFF7DDFD102827
:10E7300003D0FF25284606B070BD0546214601A836
:10E7400033462A4600F01EFA3046064933462A462A
:10E7500000F018FA284606B070BD00BF0000002087
:10E7600048B6011038B6011070B50D4E0C4605467E
:10E77000314603461022204600F004FA2B46284674
:10E780000849102200F0FEF93046074923461022BE
:10E7900000F0F8F921461020BDE87040FFF78EBD6B
:10E7A0000000002048B6011038B6011070B50E4EBA
:10E7B00005463046FFF798FD122804D1737C312BB3
:10E7C0000AD0322B02D0FF24204670BD31462846A5
:10E7D000BDE87040FFF794BF044631462846FFF776
:10E7E000C3FF204670BD00BF1C0B00202DE9F04187
:10E7F0000C46DCB009B31E4611F00F031DD11146C3
:10E8000005460093102203A802F0F6F9804680B96D
:10E81000012C04F1FF370CD0044601E0A74208D9CF
:10E820002A19311903A8103402F0F6F90028F5D09E
:10E83000804640465CB0BDE8F0814FF0FF38F8E715
:10E840002DE9F041DCB019B31E4611F00F030C4660
:10E850001ED11146012200920546102203A802F0A3
:10E86000CBF9804680B9012C04F1FF370CD0044667
:10E8700001E0A74208D92A19311903A8103402F07F
:10E88000E3F90028F5D0804640465CB0BDE8F08151
:10E890004FF0FF38F8E700BF9048F8B5846863068A
:10E8A00049D58F4E3378002B40F0CB808D4D8B486F
:10E8B0002B78052B1BD803F04DF829788A4B8B4D0C
:10E8C00053F821202B68D21A824240F3DA80884A1A
:10E8D000824852F821701F4403F03CF83946024642
:10E8E0007E4803F035F82B6803442B6002E003F008
:10E8F00037F87E4D79480022102103F039F8774827
:10E900000022202103F034F8744803F023F8002893
:10E9100040F0DF80714803F021F8082802D06F48EA
:10E9200003F020F8734B6D48002240212A601A60E2
:10E93000327003F019F8A70603D56848C3689E062D
:10E9400033D420023FD462026CD4E30611D5644C68
:10E950002378002B7CD1634C60482378052B09D9A0
:10E9600002F0FEFFBDE8F8405C480022102102F0F2
:10E97000FBBFF8BD02F0EEFF21785B4A5B4C52F81A
:10E9800021202368D21A824270DD594A534852F836
:10E9900021501D4402F0DEFF294602464F4802F096
:10E9A000D7FF236803442360DCE7250400F18B8054
:10E9B0004C4D2B78052B69D948480022202102F0C4
:10E9C000D3FF2002BFD54FF400014448002202F0DB
:10E9D000CBFF2104B7D5434D404800224FF40041FE
:10E9E00002F0C2FF3D480122294602F0B1FF2B7818
:10E9F000052BA8D83C4E3E4A384852F8231056F80A
:10EA0000232002F0A9FF3B4B2A78196856F82220F0
:10EA100008449042186096DA30480022202102F023
:10EA2000A5FF90E72E4B2D480022102101251D70D7
:10EA300002F09CFF294800224FF4800102F094FF6D
:10EA400083E72849012202F083FF002333702DE77A
:10EA500024492248012202F07BFF00232370214C2D
:10EA60001E482378052B3FF67BAF83E7204850F8FC
:10EA700021101A48194402F06BFF236803442360F5
:10EA800070E71B4850F82110194429E7194E164F1A
:10EA90001749326851F8231057F823300F481144B2
:10EAA0009A1A02F059FF2B78326857F82330104435
:10EAB000013B984230607FF47FAF0848002220215C
:10EAC00002F056FF78E700224FF4004102F04CFFBD
:10EAD0006EE7024802F044FF1CE700BF00E001407F
:10EAE000250C0020240C002010000020200C002009
:10EAF000280000201C0C002010B5024600211B48F5
:10EB000002F0D8FE044660BB1949184802F01CFF09
:10EB1000164802F025FF224614484FF4800102F007
:10EB200025FF224611484FF4000102F01FFF224644
:10EB30000E48402102F01AFF0E49242002F0C4FBC7
:10EB40000D4B10225A604FF0FF321146074802F079
:10EB50000BFF0A4B59680C701B6901221A70204682
:10EB600010BD074806F064F8204610BD00E00140E3
:10EB7000A086010099E8001000E100E028000020D4
:10EB800058B60110002A10DD00B501380139013BEB
:10EB9000024410F801CF11F801EF90428CEA0E0CFC
:10EBA00003F801CFF5D15DF804FB70472DE9F04F74
:10EBB00087B00D684F688E68CC68CDE90032036875
:10EBC0002DBA5D4043683FBA5F40836836BA5E4005
:10EBD000C368F9B2F2B224BA5C4001F54071EA4B65
:10EBE00002F540725FFA84FE53F8218053F8221038
:10EBF0000EF5407E2A0E53F82EE053F822205FFADD
:10EC000085FC82EA0E020CF5407C4FEA176E53F841
:10EC10002CC053F82EE08EEA0C0E4FEA166C53F817
:10EC20002CC08CEA080C4FEA146853F8288088EA54
:10EC30000101C7F30748C7F3072707F500770291DB
:10EC400053F827B00169C6F30747C6F3072606F550
:10EC5000007608F5807853F8269053F828A0C4F37E
:10EC60000746C4F3072407F5807704F500744A408B
:10EC7000416953F8278053F8247006F58076C5F370
:10EC80000744C5F307258EEA010E05F50075816975
:10EC900053F8266053F825508CEA010C04F5807473
:10ECA0008CEA060C8CEA050C53F82440C5690299DD
:10ECB0006940614081EA0B01CCB28EEA080E04F58E
:10ECC00040748EEA070E53F82450CEF3074404F53F
:10ECD000807482EA0A0253F824705FFA8EF404F515
:10ECE000407482EA090203945FFA8CF404F54079D7
:10ECF000140ED6B2C2F3074BC2F3072253F82440D6
:10ED0000CDF8149002F500720492CCF30728026A41
:10ED100008F500786C4054404FEA1E697C4006F5C7
:10ED2000407653F8287053F82660674053F829401E
:10ED3000CEF3072E84EA06020EF5007A039C53F800
:10ED40002AA04FEA1C6ECCF3074C53F82E6053F800
:10ED500024E0059C0CF580754FEA116C029553F880
:10ED60002CC086EA0E0653F824E0029CC1F3074546
:10ED7000C1F3072101F500718CEA0E0C53F824E071
:10ED8000446A53F82190049905F580755440826ACD
:10ED900053F8258053F8211056400BF5807B86EA06
:10EDA00008064E40C16A53F82B508CEA010C8CEADD
:10EDB000050C8CEA0A0C5FFA8CF284EA0E0402F568
:10EDC000407284EA090453F82210C4F3074202F5A2
:10EDD00080725FFA86FE53F822A0C6F3072202F57E
:10EDE00000720EF5407E53F822200292FAB202F52C
:10EDF000407253F82250C6F3074202F58072360E75
:10EE000053F822200392CCF3072202F5007253F844
:10EE1000266053F822200492E2B202F5407253F8C1
:10EE200022B0CCF3074202F580724FEA1C6C53F813
:10EE3000229053F82C20C7F3072C0CF5007C86EAAF
:10EE40000B0653F82C804FEA176CC7F3074753F8AB
:10EE50002CB08BEA010B07F58071270EC4F3072451
:10EE600053F8277087EA050C056B8BEA050B029DAA
:10EE70008BEA0A076F40456B8CEA050C039D8CEA10
:10EE8000050C049D8CEA050C856B6E4053F82E50E2
:10EE900004F5007482EA050E53F82150C16B53F853
:10EEA00024208EEA010E8EEA050E8EEA020E5FFA2B
:10EEB0008EF202F5407286EA090653F82210FAB281
:10EEC00002F5407286EA080653F822805FFA8CF257
:10EED00002F5407253F82250F2B202F5407253F834
:10EEE00022403A0E53F8222051404FEA1C6253F858
:10EEF000222082EA08024FEA166853F8288088EA3E
:10EF000005054FEA1E6853F8288088EA0404CCF30C
:10EF10000748CCF3072C08F580780CF5007C53F8F3
:10EF200028B0029453F82C400394C6F3074C0CF518
:10EF3000807CC6F3072606F5007653F82C90046C07
:10EF400053F826A0CEF3074CCEF3072E0EF500762D
:10EF50006140446C53F826800CF5807CC7F307466B
:10EF6000C7F30727624007F50077846C53F82CE05D
:10EF700053F82770654085EA0E0506F580767D40DA
:10EF8000029CC76C02E000BF74C7011053F82660F2
:10EF90007C40039F74407C40E6B282EA090206F599
:10EFA000407682EA080253F82670C2F3074606F557
:10EFB0008076C5F3074C53F82660029681EA0B0170
:10EFC0000CF5807B5FFA82FC81EA0A01C5F3072613
:10EFD0000CF540795FFA85FC2D0E049506F5007658
:10EFE0000D0E53F8266053F825500396CEB26F40AD
:10EFF00006F54076150E53F8266053F8255053F861
:10F0000029907540066D7740029E7740039E7740B9
:10F01000466D754053F82B607540049E4FEA1468A6
:10F02000C4F3074EC4F3072453F826600CF5407A66
:10F0300004F50074C1F3074CC2F30722C1F30721A2
:10F0400086EA090902F5007253F8286053F82A800D
:10F0500053F824400EF5807E01F5007153F82EA080
:10F060000CF5807C85EA040E53F8214053F82210F9
:10F07000826D86EA080653F82C8089EA020CC26D7C
:10F08000564086EA08064E40F2B202F540728CEA1B
:10F090000A0C53F82280FAB202F540728CEA040C92
:10F0A00053F822505FFA8EF202F5407253F8224074
:10F0B0005FFA8CF202F5407253F822103A0E53F8C0
:10F0C000222082EA08024FEA1E6853F8288088EA64
:10F0D00005054FEA1C6853F8288088EA04044FEAC3
:10F0E000166853F8288088EA0101CEF30748CEF36A
:10F0F000072E0EF5007E029153F82E100391CCF3EB
:10F10000074ECCF3072C0CF5007C016E53F82CA0B5
:10F11000C6F3074CC6F3072608F5807806F5007697
:10F120004A40416E53F828B053F826800EF5807E91
:10F130000CF5807CC7F30746C7F307274D4007F55A
:10F140000077816E53F82E9053F82CE053F8277017
:10F150004C4084EA0E0406F580767C400299C76E26
:10F1600053F826607940039F7140794082EA0B0290
:10F1700085EA090582EA0A0285EA08055FFA81F84C
:10F18000170E08F540785FFA82FEE6B253F8279032
:10F1900053F828700EF5407E06F540765FFA85FC40
:10F1A00053F826B00CF5407C89EA07072E0E53F879
:10F1B0002E9053F82C8053F82660C5F3074EC5F304
:10F1C000072505F500754FEA146C53F82550029594
:10F1D00053F82CC0C4F30745C4F3072404F50074A6
:10F1E0008CEA080C4FEA116886EA090653F8249065
:10F1F00053F82880C1F30744C1F3072105F5807552
:10F2000004F5807401F5007188EA0B0B53F8258032
:10F2100053F8245053F82140C2F30741C2F30722A8
:10F220000EF5807E02F5007253F82EA053F822E00E
:10F23000026F5740426F564086EA08066640846F68
:10F2400001F580718CEA040CC46F53F821108CEA2C
:10F25000050C8BEA0404029D4C406C40E2B202F5BE
:10F2600040728CEA0E0C53F82250C6F3074202F5A6
:10F27000807287EA0A0753F822200292CCF3072211
:10F2800002F5007287EA090753F822100391FAB2D7
:10F2900002F540725FFA8CFE53F82210CCF307425D
:10F2A00002F580724FEA1C6C53F822200492C4F3DA
:10F2B000072202F50072C7F3074953F8222005928E
:10F2C000F2B202F540724FEA146853F8222053F864
:10F2D0002CC053F828808CEA02024FEA176CC7F35F
:10F2E000072753F82CB08BEA050B350E07F5007C89
:10F2F00053F8255085EA010AD0F880508BEA050BB7
:10F30000029D8BEA0507039D6F40D0F884508AEA7E
:10F31000050A049DC4F307448AEA050A059DC6F35D
:10F32000072604F5807406F500718AEA0506D0F810
:10F33000885053F8244053F821100EF5407E6A405F
:10F3400053F82E5082EA040E53F82C2009F58079E8
:10F350008EEA020ED0F88C2053F8294088EA050581
:10F3600085EA020C8CEA040C8CEA010C5FFA8CF240
:10F3700002F540724FEA176853F8221053F82880BC
:10F38000FAB202F5407288EA01014FEA166853F8B2
:10F39000225053F82880F2B202F5407288EA05053F
:10F3A0004FEA1E6853F8224053F828805FFA8EF225
:10F3B00088EA040402F540724FEA1C6853F82220E0
:10F3C00053F8288088EA0202C6F30748C6F30726E6
:10F3D00006F5007608F5807853F826600396CEF39C
:10F3E000074606F58076CEF3072E53F8269053F89D
:10F3F00028B00292CCF307460EF5007E06F5807623
:10F4000053F82EA053F826E0D0F890205140D0F8C1
:10F410009420C7F30746C7F30727554007F5007741
:10F42000D0F8982053F82770544006F5807684EA87
:10F430000E04029A53F826607C40D0F89C70CCF3FE
:10F44000072C7A400CF5007C7240009E53F82C800B
:10F45000039F81EA0B0185EA0905052E81EA0A016D
:10F4600085EA080582EA070240F2E981D6B206F58C
:10F470004076C5F3074E53F82670CEB206F54076B7
:10F480000EF5807E53F826C0EEB206F5407653F8AE
:10F490002680E6B206F5407653F826B00E0E53F8F5
:10F4A000266077402E0EC5F3072553F8266005F534
:10F4B000007586EA0C064FEA146C53F82550029545
:10F4C00053F82CC0C4F30745C4F3072404F50074B3
:10F4D0008CEA080C4FEA126853F8249053F82880FD
:10F4E000C2F30744C2F3072205F5807502F50072E6
:10F4F00088EA0B0B53F82E8053F825E053F822507E
:10F50000C1F30742C1F3072101F5007102F58072D2
:10F5100053F821A0D0F8A01053F822204F40D0F883
:10F52000A4104E4086EA0E067540D0F8AC10D0F814
:10F53000A86004F580748CEA060C8BEA010656403C
:10F54000029A53F8244056408CEA040CF2B28CEA3A
:10F550000A0C02F54072CCF3074453F8221004F56C
:10F560008074C5F3074202F5807253F8244053F8C3
:10F5700022B00394CCF30722C6F3072402F50072ED
:10F5800004F5007487EA080787EA090753F8222080
:10F5900053F8244002920494FAB2ECB25FFA8CFE63
:10F5A00002F5407204F540744FEA1C6C53F82220B7
:10F5B00053F8244053F82CC08CEA04044FEA176C2B
:10F5C0004FEA166853F82CC053F828808CEA0101E2
:10F5D0004FEA156CC6F3074653F82CA08AEA020AD4
:10F5E000D0F8B0205140029A81EA0B015140D0F886
:10F5F000B4208AEA020A039A8AEA020A049AC5F344
:10F60000072506F5807605F5007CC7F307498AEAE9
:10F610000205C7F30727D0F8B82053F8266007F58E
:10F6200000770EF5407E5440744053F8276053F83D
:10F630002E2053F82C7009F580797440D0F8BC6006
:10F6400053F829E088EA02027240009E82EA0E0224
:10F65000062E82EA070200F0F280D6B206F5407666
:10F66000C5F3074E53F82670CEB206F540760EF578
:10F67000807E53F826C0EEB206F5407653F8268019
:10F68000E6B206F5407653F826B00E0E53F8266023
:10F6900077402E0EC5F3072553F8266005F5007553
:10F6A00086EA0C064FEA146C53F82550029553F87D
:10F6B0002CC0C4F30745C4F3072404F500748CEA96
:10F6C000080C4FEA126853F8249053F82880C2F3CC
:10F6D0000744C2F3072205F5807502F5007288EA37
:10F6E0000B0B53F82E8053F825E053F82250C1F34A
:10F6F0000742C1F3072101F5007102F5807253F84A
:10F7000021A0D0F8C01053F822204F40D0F8C410E8
:10F710004E4086EA0E067540D0F8CC10D0F8C8608E
:10F7200004F580748CEA060C8BEA01065640029AB6
:10F7300053F8244056408CEA040CF2B28CEA0A0CCE
:10F7400002F54072CCF3074453F8221004F580749C
:10F75000C5F3074202F5807253F8244053F822B0F3
:10F760000394CCF30722C6F3072402F5007204F5D4
:10F77000007487EA080787EA090753F8222053F83C
:10F78000244002920494FAB2ECB25FFA8CFE02F5C5
:10F79000407204F540744FEA1C6C53F8222053F871
:10F7A000244053F82CC08CEA04044FEA176C4FEA4B
:10F7B000166853F82CC053F828808CEA01014FEAF0
:10F7C000156CC6F3074653F82CA08AEA020AD0F853
:10F7D000D0205140029A81EA0B015140D0F8D42048
:10F7E0008AEA020A039A8AEA020A049AC5F30725FA
:10F7F00006F5807605F5007CC7F307498AEA02051D
:10F80000C7F30727D0F8D82053F8266007F500770C
:10F810000EF5407E5440744053F8276053F82E2074
:10F8200053F82C7009F580797440D0F8DC6053F8F7
:10F8300029E088EA0202724082EA0E027A40D6B2D9
:10F8400006F580764FEA146913F826C0C5F307461B
:10F8500006F5407609F5007953F8266053F82990AB
:10F8600006F47F080E0E06F500765FFA84FA53F868
:10F87000266006F07F4648EA0608CEB206F5807696
:10F880000AF5807A13F82670C4F3074606F5407629
:10F89000C4F3072453F8266006F47F0E2E0E06F5F7
:10F8A000007609F07F4953F8266006F07F464EEA5D
:10F8B000060EEEB2C5F307254FEA126B53F825503A
:10F8C00005F47F450295C2F3074505F54075C2F37F
:10F8D000072253F8255053F8222005F47F0545EA06
:10F8E000090553F8249013F82A40C1F3074A0BF591
:10F8F000007B06F58076C1F307210AF5407A13F8FC
:10F90000266053F8211053F82AA053F82B3002F444
:10F910007F4B009A0AF47F0A03F07F434AEA03030D
:10F9200000EB421A520101F47F4182588CEA020C2A
:10F93000DAF804205740DAF8082056404E40DAF84A
:10F940000C2001996E40029D09F47F4954408CEAD5
:10F95000090C87EA0B076C408CEA080C87EA0E0753
:10F960005C409CFA8CFC3FBA36BA24BAC1F800C09D
:10F970004F608E60CC6007B0BDE8F08F2DE9F04F8E
:10F9800087B00D684C68D1F80890CE68CDE9003298
:10F9900003682DBA5D40436824BA5C40836899FAD5
:10F9A00089F989EA0309C3685FFA84FC5FFA89F779
:10F9B000EAB236BA5E400CF5407CE74B07F540777B
:10F9C00002F54072F1B253F82C8053F827C053F877
:10F9D000227001F540712A0E53F821E053F82210ED
:10F9E000220E81EA080153F8222082EA0C024FEA33
:10F9F000196C53F82CC08CEA0E0C4FEA166E53F8B3
:10FA00002EB08BEA070BC6F30747C6F3072606F5A9
:10FA1000007607F5807753F826E053F827A0C5F362
:10FA20000746C5F3072506F5807605F5007553F8FA
:10FA3000268053F82560C4F30745C4F3072404F572
:10FA4000007405F5807553F824400294046953F856
:10FA500025706140446962408469C9F307458CEAB6
:10FA6000040C8CEA070C05F580758CEA060CC9F3CA
:10FA70000729C66953F8255082EA080209F500797A
:10FA800082EA0E028BEA060B53F82990029C8BEA5D
:10FA9000050BD5B205F540758BEA040453F82560D3
:10FAA000C4F3074505F5807581EA0A0153F825700E
:10FAB00002975FFA8CF505F5407BE5B281EA090112
:10FAC00005F540750395CDB205F540790D0E4FEA69
:10FAD0001268C2F3074AC2F3072253F8255002F511
:10FAE00000720592CCF30727026A754007F500778C
:10FAF0005540029A53F8277055406F40039A53F8C7
:10FB0000285053F82B804FEA1C6ECCF3074C0CF5B1
:10FB1000807653F82EE004964FEA146C85EA0805C7
:10FB200053F82280059A53F82CC0C1F307460AF512
:10FB3000807A06F580768EEA080EC4F3072453F81F
:10FB4000298053F82A9053F822A0426A04F50074E1
:10FB50008CEA080C53F8268053F82440049E554044
:10FB600085EA0805C1F30721654001F50071846A43
:10FB700053F8211053F826608EEA040E8EEA090E1F
:10FB80008EEA010EC16AEAB28CEA010C8CEA060C1C
:10FB900002F540728CEA0A0C53F822A0CCF307421B
:10FBA00002F58072C7F3074153F822200292CEF388
:10FBB000072202F5007201F5807153F8226053F8B4
:10FBC00021100391CCF3072101F500715FFA8EF249
:10FBD00053F8211004915FFA8CF101F540714FEA5E
:10FBE0001C6C53F8214053F82CB0C5F3074101F5C4
:10FBF000807102F5407253F8218053F82220C7F338
:10FC0000072101F5007153F821C0F9B23F0E01F54B
:10FC1000407153F8277053F8211087EA0A0A2F0E13
:10FC2000C5F3072553F8277087EA020905F5007226
:10FC30004FEA1E658BEA010B53F8257053F822102A
:10FC4000C26B6740046B8AEA040A029C8AEA040ACF
:10FC5000446B89EA0409039C89EA0409049CCEF3F5
:10FC6000074E89EA0405846B0EF5807E67408BEAB7
:10FC7000020BEAB253F82E4087EA080702F54072F9
:10FC800087EA0C078BEA040B53F82240FAB202F51C
:10FC900040728BEA010B53F822E05FFA8BF202F517
:10FCA00040728AEA060653F82210F2B202F5407258
:10FCB00053F82280320E53F8222054402A0E53F873
:10FCC000222082EA0E024FEA176E029253F82EE0CB
:10FCD0008EEA01014FEA1B6E53F82EE08EEA080807
:10FCE000CBF3074ECBF3072B0BF5007C0EF5807E94
:10FCF00053F82EB053F82C200392C6F3074CC6F3EA
:10FD000007260CF5807C06F5007653F82C9053F806
:10FD100026C0026CC5F3074606F58076544053F8BA
:10FD200026E0029AC7F30746C7F3072707F50077CF
:10FD300084EA0B0453F8277084EA070A476C039C93
:10FD40007A40876C82EA0902C5F3072506F58076BA
:10FD5000624005F5007501E074B7011081EA0704FF
:10FD6000C76C53F8266053F8255088EA07017140A4
:10FD70006940D5B284EA0E0405F5407584EA0C04A6
:10FD8000CAF3074C53F825E00CF580755FFA81FC47
:10FD9000E7B20CF5407C0395CDF810C0150E5FFA64
:10FDA0008AFC07F540770CF54079C1F307464FEA26
:10FDB0001A6C53F8277053F8255053F82CB006F5F9
:10FDC00080767D4053F82660076D02968BEA0E0B15
:10FDD0008BEA070B029F8BEA070B476DC2F3074CB8
:10FDE0007D40C2F30722039FC4F307264FEA116E3A
:10FDF00002F50072C1F3072153F8277005924FEA0C
:10FE00001468049A06F5007601F5007153F826602F
:10FE10007D4053F8287053F8228053F82110059A3A
:10FE200053F82EE04D400CF5807C53F82210826D83
:10FE300053F82CC087EA0807CAF3072A53F8298029
:10FE40000AF5007A5740C4F30744C26D8EEA080EE3
:10FE500004F5807453F82A8053F8244087EA0C078D
:10FE60008EEA020CEAB202F5407287EA08078CEAD1
:10FE7000040C53F82240FAB202F540728CEA010CED
:10FE800053F822105FFA8CF202F540728BEA0606F4
:10FE900053F82280F2B202F5407253F822E0320E9B
:10FEA00053F8222054402A0E53F8222051403A0E93
:10FEB00053F8222082EA08024FEA1C68029253F8A3
:10FEC0002880026E88EA0E0ECCF30748CCF3072C8C
:10FED00008F580780CF5007C53F828B053F82C8096
:10FEE000C6F3074CC6F307260CF5807C06F50076B2
:10FEF00053F82C9053F826C0C5F3074606F58076D4
:10FF0000544053F826A0029AC7F30746C7F30727C1
:10FF100007F5007784EA0B0453F827707C40476E9E
:10FF2000C5F30725794005F50075876E53F8255010
:10FF300006F580767A4053F82660C76E82EA0A0298
:10FF400082EA0C0281EA09018EEA070C81EA0801C3
:10FF50008CEA060C8CEA050C5FFA81F85FFA82FEE7
:10FF6000E5B2260E08F540780EF5407E05F54075A1
:10FF700053F8269053F8286053F82E8053F825E064
:10FF80000D0E5FFA8CF753F8255007F5407785EA98
:10FF900008054FEA126853F8277053F8288088EA5A
:10FFA00007074FEA1C68C2F3074A53F82880C2F3D8
:10FFB000072202F5007288EA0E08CCF3074E53F8C8
:10FFC000222002920EF5807E026F53F82EB089EA4D
:10FFD00006065640029AC4F3074E86EA0B065640C0
:10FFE000CCF3072C426F0EF5807E0CF5007C53F8A5
:10FFF0002EE053F82CC05540826FC1F307490AF533
:020000041001E9
:10000000807AC1F3072185EA0E05574001F500719A
:10001000C26F53F82AA053F8211085EA0C0C09F599
:10002000807988EA020E5FFA8CF253F829908EEA02
:100030000A0E02F54072C4F307248EEA010E04F59D
:10004000007487EA090753F8229053F82440CEF34E
:10005000074202F58072674053F822200292C7F3EC
:10006000072202F500724FEA1E6153F82220039224
:10007000FAB202F540725FFA86F853F82240C6F3EE
:10008000074202F5807208F5407853F82250049533
:10009000CEF3072202F5007253F8225005915FFA61
:1000A0008EF24FEA166EC6F3072606F500714FEA88
:1000B0001C6602F5407253F8266053F8222053F86C
:1000C0002EB086EA040A3C0E8BEA090B53F8244052
:1000D00084EA020ED0F880408BEA040B029C8BEA83
:1000E000040B039C8BEA0406D0F884408AEA040AD5
:1000F000049C8AEA040AD0F88840C7F3074707F54A
:1001000080728EEA0407059CCCF3074953F824E07B
:1001100053F8284009F580798EEA040453F829E061
:1001200087EA0E0753F822E053F82120CCF3072C7E
:1001300057400CF5007CD0F88C2053F82C108AEA3C
:10014000050584EA020CEAB202F540728CEA0E0C54
:1001500053F82240FAB202F540728CEA010C53F8CF
:1001600022105FFA8CF202F5407253F82280F2B24C
:1001700002F5407253F822E0320E53F82220544028
:100180002A0E53F8222051403A0E53F8222082EAD8
:1001900008024FEA1C68029253F8288088EA0E0889
:1001A000CCF3074ECCF3072C0CF5007C0EF5807ECB
:1001B00053F82CA053F82EB0C6F3074CC6F307260D
:1001C0000CF5807C06F5007653F82C9053F826C089
:1001D000C5F3074606F58076C5F3072505F50075D6
:1001E00053F826E053F82550D0F89020C7F307467F
:1001F000C7F3072707F50077544053F82770029A92
:1002000084EA0B047C40D0F894707940D0F8987060
:1002100006F580767A40D0F89C7053F8266082EA22
:100220000E0282EA0C0288EA070C8CEA060C8CEAC1
:10023000050C009D81EA0901052D81EA0A0140F2C1
:10024000EE81CDB205F54075C2F3074A53F825603B
:10025000D5B205F54075C1F3074953F825805FFA1B
:100260008CF505F540750AF5807A53F8257053F83A
:100270002AA0E5B205F5407509F5807953F825E027
:1002800053F82990250E53F825506E400D0EC1F3FA
:10029000072153F8255085EA08054FEA1268C2F392
:1002A000072253F8288088EA07074FEA1C6802F5FE
:1002B000007253F8288053F82220029288EA0E0830
:1002C000CCF3074E0EF5807ED0F8A02053F82EB068
:1002D0005640029AC4F3074E86EA0B065640CCF30A
:1002E000072CD0F8A4200EF5807E0CF5007C53F886
:1002F0002EE053F82CC05540D0F8A82085EA0E0512
:10030000574001F50071D0F8AC2053F8211085EA70
:100310000C05C4F3072488EA020CEAB28CEA0A0C42
:1003200002F5407204F500748CEA010C53F822E0E7
:1003300053F82440CCF3074287EA090702F580729C
:10034000674053F82240C7F3072202F500724FEAD4
:10035000166853F8229053F82880FAB202F54072DA
:100360004FEA1C6A53F82210C6F3074202F5807266
:1003700088EA0E0853F822B0CCF3072202F5007287
:100380004FEA156E53F8222002925FFA8CF202F5C2
:1003900040725FFA86FCC6F3072606F5007653F82E
:1003A0002220039653F82EE0D0F8B0608EEA0101C7
:1003B00088EA06084FEA176ED0F8B46053F82EE0CA
:1003C0007140029E81EA0B018EEA02027140C5F380
:1003D000074ED0F8B8600EF5807E7240039E53F849
:1003E0002EE053F826600CF5407CC5F3072505F593
:1003F000007588EA040853F82CC0C7F3074788EA59
:10040000090482EA0E0253F82A9007F580777240B9
:1004100053F82560D0F8BC5053F8277089EA0C0CCB
:100420008CEA050C009D8CEA070C062D8CEA060C64
:1004300000F0F580CDB205F54075C2F3074A53F8D8
:100440002560D5B205F54075C1F3074953F82580FD
:100450005FFA8CF505F540750AF5807A53F825703A
:1004600053F82AA0E5B205F5407509F5807953F8EF
:1004700025E053F82990250E53F825506E400D0EB7
:10048000C1F3072153F8255085EA08054FEA1268A1
:10049000C2F3072253F8288088EA07074FEA1C684E
:1004A00002F5007253F8288053F82220029288EA5D
:1004B0000E08CCF3074E0EF5807ED0F8C02053F81E
:1004C0002EB05640029AC4F3074E86EA0B065640F9
:1004D000CCF3072CD0F8C4200EF5807E0CF5007C00
:1004E00053F82EE053F82CC05540D0F8C82085EAC8
:1004F0000E05574001F50071D0F8CC2053F82110BB
:1005000085EA0C05C4F3072488EA020CEAB28CEAF7
:100510000A0C02F5407204F500748CEA010C53F8E1
:1005200022E053F82440CCF3074287EA090702F59A
:100530008072674053F82240C7F3072202F5007229
:100540004FEA166853F8229053F82880FAB202F561
:10055000407288EA0E0853F82210C6F3074202F5EB
:1005600080724FEA156E53F822B053F82EE0CCF3A8
:10057000072202F500728EEA010153F8222002924E
:100580005FFA8CF24FEA176E02F540724FEA1C6A6E
:1005900053F8222053F82EE08EEA0202C5F3074EEC
:1005A000C5F3072505F500750395D0F8D05088EA06
:1005B0000508D0F8D4506940029D81EA0B015FFA2A
:1005C00086FC6940D0F8D8500CF5407CC6F307266D
:1005D000C7F307476A4006F50076039D53F82CC021
:1005E00053F8266053F8255007F580770EF5807E86
:1005F00088EA040888EA090453F82A9053F82EE0A0
:1006000053F82770D0F8DC3089EA0C0C8CEA030C24
:1006100082EA0E028CEA070C72408CEA050C324B1F
:10062000250ECEB25D5D9E5D46EA05660D0E5FFA53
:100630008CFE5F5D13F80EE0D5B25D5D45EA07659F
:10064000170EDF5D4EEA076E4FEA1C6713F807804E
:10065000E7B2DF5D47EA0867CCF30748CCF3072C25
:1006600013F8088013F80CC046EA0846C4F307489C
:10067000C4F3072413F8088045EA084545EA0C2529
:1006800013F804C0C1F30744C1F307211C5D4EEA0F
:10069000044444EA0C2413F801C0C2F30741C2F336
:1006A0000722595C9B5C009A46EA032300EB421642
:1006B000520147EA014182585340726885EA0200BC
:1006C000B268019D6240F46841EA0C211BBA2B60BC
:1006D00081EA040300BA12BA1BBA6860AA60EB6030
:1006E00007B0BDE8F08F00BF74B60110002800F01D
:1006F00077822DE9F04FA2F11005102D85B09246BA
:1007000004D81F46D54BEB40DB0704D46FF0AC0098
:1007100005B0BDE8F08F4FEA920808F1060389465C
:100720000446C0F8F420C0F8F030064600F1F80B9B
:10073000002F47D0D7F800E0D7F804C0BD68FB68A9
:10074000C0F8F8E0CBF804C0CBF80850CBF80C3078
:1007500005F046FC04EB8808254623461A6812BAC1
:1007600043F8042B9845F9D149465246204605F0F6
:1007700037FC23461A6812BA43F8042B9845F9D17E
:10078000BAF1180F00F0E281BAF1200F00F05781A2
:10079000BAF1100F00F011810E9B012B1DD0002F1C
:1007A00000F0028138687968BA68FB68C4F8F8001C
:1007B000CBF80410CBF80820CBF80C30002005B0A3
:1007C000BDE8F08FC0F8F870CBF80470CBF8087073
:1007D000CBF80C7005F004FCBCE7D4F8F0309E00B8
:1007E0001FD004EB031322460021A44610681C68A6
:1007F0001460186050685C685460586090689C6829
:1008000094609860D068DC68D4600431D860701A55
:10081000814202F11002A3F11003E7D3DCF8F030BB
:100820006446012BBBD98E4B8E4ACDF808B04FF0F1
:10083000010EA3460397D5E90460F4B204F5807471
:10084000A96913F8244004F540744FEA166A52F877
:100850002490C4B204F580740AF5807A13F8244019
:1008600013F82AA004F5407452F82AA052F824C0C4
:10087000CCB204F580748AEA090A13F8244004F51E
:100880004074C1F3074752F824400194C6F307446B
:1008900004F58074C6F3072606F5807613F8244025
:1008A00013F8266004F5807406F5007652F824806B
:1008B00052F826608AEA080AC0F307448AEA060664
:1008C0002E6104F58074060E06F58076C0F30720CD
:1008D00013F8244013F8266000F5807004F5807446
:1008E00013F8208052F8260052F8244008F50078CA
:1008F00080EA0C00604052F828406040686107F5CB
:100900008077080EC1F3072100F5807001F5807132
:1009100013F8277013F8204013F8210052F8241020
:10092000019C07F5807700F5007052F8277052F8A7
:100930002000614079404140A961E969080E00F555
:100940008070103513F82060C8B200F580700EF189
:10095000010E13F8204052F8260004F5407452F8B6
:1009600024406040C1F3074404F58074C1F30721BB
:1009700013F8246001F5807113F8214006F58071A9
:1009800004F5007452F82110414052F8240041400F
:10099000E960DBF8F0108E45FFF44DAF5C46DDE911
:1009A00002B7002F7FF4FEAEC4F8F870CBF80470E5
:1009B000CBF80870CBF80C7000E7D4E901CE284BD7
:1009C000DFF8A4802068E168A2461A4674466346B0
:1009D00008F128099446D64600E01036CAB24FEA1C
:1009E000116A0AF5807A5CF822201CF82AA002F429
:1009F0007F4242EA0A02C1F3074A0AF5007A5CF82C
:100A00002AA00AF07F4A82EA0A02C1F3072A0AF5FD
:100A1000407A5CF82AA00AF47F0A82EA0A0258F8AF
:100A200004AB82EA0A02504043405C406140C14549
:100A3000C6E90403C6E90641CFD17446ACE6D4E961
:100A4000008ED4E902C1224601956446DFF81C906D
:100A5000034B02974046754694463DE00101010074
:100A600074C7011074B7011074D7011070D701104A
:100A7000C1F3074E0EF5407EC1F3072853F82EE070
:100A800053F82880376908F47F480EF47F0E4EEA49
:100A9000080E4FEA116808F500788EEA070E53F841
:100AA00028A077695FFA81F808F580780AF07F4A14
:100AB00013F828804AEA08088EEA080EC6F830E0E3
:100AC0008EEA070EB769C6F834E08EEA070E82EAAE
:100AD0000E02C6E90EE22036F26959F804AF424F21
:100AE0005FFA82FE4FEA126808F5807853F82EE02C
:100AF00013F828800EF47F4E4EEA080EC2F3074822
:100B000008F500788EEA0A0E53F8288008F07F482E
:100B10008EEA080EC2F3072808F540784F4553F8CF
:100B2000288008F47F088EEA080E80EA0E0085EA25
:100B3000000584EA050481EA0401C6E90805C6E95E
:100B40000A4195D1019D029F644625E6D4E902C978
:100B5000264BD4F800E0606801951A46A04663462B
:100B6000DFF890A075464C46944605E03269624035
:100B70005140C6E90A21183671695AF8049FCAB271
:100B80004FEA116E0EF5807E5CF822201CF82EE0F4
:100B900002F47F4242EA0E02C1F3074E0EF5007ED8
:100BA00082EA09025CF82EE00EF07F4E82EA0E0225
:100BB000C1F3072E0EF5407E5CF82EE00EF47F0E9A
:100BC00082EA0E0255406840094A43405C40524563
:100BD000C6E90650C6E90834C8D1019D4446DBE5A4
:100BE0006FF0AC00704700BF8CD7011074C70110C4
:100BF00090D7011070D7011010B4019C30B1F02AC9
:100C000004D801945DF8044BFFF770BD6FF0AC00A1
:100C10005DF8044B704700BF90B108B513460A4613
:100C20001946D0F8F0305B0803F1FF3CBCF1060F29
:100C300003D8FDF7BBFF002008BD6FF0E10008BD41
:100C40006FF0AC00704700BF90B108B513460A467C
:100C50001946D0F8F0305B0803F1FF3CBCF1060FF9
:100C600003D8FEF78BFE002008BD6FF0E10008BD41
:100C70006FF0AC00704700BF08B50346014803F0B1
:100C800077FFFEE79CD70110002000F079BD00BF80
:100C9000012000F075BD00BF10B5002000F05CFB26
:100CA000012000F059FB402000F056FB104B0222BF
:100CB00018684FF4E13101F02FF9041E0CDB00F04D
:100CC000EBF858B900F088F8044660B9094B0A48B7
:100CD0004322DA6000F0BEFA204610BD07490848FA
:100CE0006F22FFF7C9FF054905487422FFF7C4FFCB
:100CF0004000002000440040400D0300B8D7011020
:100D000000D8011000BF70474FF0FF30704700BFA0
:100D10004FF0FF30704700BF4FF0FF30704700BF0B
:100D20004FF0FF30704700BFF8B5E0B9002A19DD79
:100D3000104D0E468F180C4602E0BB420FD01C46E9
:100D4000284601F0E1F9C1B22170284601F0DEF930
:100D500022780D2A04F10103EFD10A232370C6F192
:100D60000106A019F8BD01F0B3FC092303604FF0A0
:100D7000FF30F8BD00200440F8B5431E012B21D8F8
:100D8000002A174612DD531E124E4C1ECD1814F8C1
:100D9000013F0A2B0CD00F4801F0BCF90028FAD013
:100DA0002178304601F0B2F9AC42F0D13846F8BDB6
:100DB000084801F0AFF90028FAD00D21304601F0C3
:100DC000A5F9E8E701F084FC092303604FF0FF3048
:100DD000F8BD00BF00200440F8B50D4B1F68A7B157
:100DE00000250C4C2E46D4E9000100F09BFC204667
:100DF00000F092FB0135002818BF6FF00706AF42E4
:100E000004F10C04EFD13046F8BD3E463046F8BD43
:100E100008D801100CD801100B4B1B68834210B589
:100E200004460BD9094B04EB440403EB840253F84A
:100E300024005168BDE8104000F08ABC0449054810
:100E40003B22FFF719FFEDE708D801100CD801107D
:100E50004CD8011084D801100B4B1B68834210B58D
:100E600004460BD9094B04EB440403EB840253F80A
:100E700024005168BDE8104000F054BC0449054806
:100E80004622FFF7F9FEEDE708D801100CD8011053
:100E90004CD8011084D80110F8B50B4B1F6887B1EE
:100EA00000240A4D2646284600F036FB013400286F
:100EB00018BF6FF00706BC4205F10C05F3D13046B0
:100EC000F8BD3E463046F8BD30D8011034D8011088
:100ED000474885464748804780B94749474A484B75
:100EE0009B1A03DD043BC858D050FBDC4549464AF9
:100EF00000209142BCBF41F8040BFAE74348804709
:100F00004348804743488047FFF7FEFFFEE7FEE780
:100F1000FEE7FEE7FEE7FEE7FEE7FEE7FEE7FEE7A9
:100F2000FEE7FEE7FEE7FEE7FEE7FEE7FEE7FEE799
:100F3000FEE7FEE7FEE7FEE7FEE7FEE7FEE7FEE789
:100F4000FEE7FEE7FEE7FEE7FEE7FEE7FEE7FEE779
:100F5000FEE7FEE7FEE7FEE7FEE7FEE7FEE7FEE769
:100F6000FEE7FEE7FEE7FEE7FEE7FEE7FEE7FEE759
:100F7000FEE7FEE7FEE7FEE7FEE7FEE7FEE7FEE749
:100F8000FEE7FEE7FEE7FEE7FEE7FEE7FEE7FEE739
:100F9000FEE7FEE7FEE7FEE7FEE7FEE7FEE7FEE729
:100FA000FEE7FEE7FEE7FEE7FEE7FEE7FEE7FEE719
:100FB000FEE7FEE7FEE7FEE7FEE7FEE7FEE7FEE709
:100FC000FEE7FEE7FEE7FEE7FEE7FEE7FEE7FEE7F9
:100FD000FEE7FEE7FEE7FEE7FEE7FEE7FEE7FEE7E9
:100FE000FEE7FEE7FEE7FEE7FEE7FEE7FEE7FEE7D9
:100FF00000000220BD10011058DE0110000000208A
:10100000080700200008002050190020C11001101E
:10101000F9490110ADE600100B4A08B50346106807
:1010200028B10A4903448B4207D8136008BD084819
:101030000649106003448B42F7D901F049FB0C23A9
:1010400003604FF0FF3008BD380E002000F0012093
:10105000581900204FF080439A6802F46062B2F59C
:10106000206F20D011D9B2F5406F17D00F4B104927
:10107000B2F5606F18BF0B464FF080420D49926881
:10108000C2F38212D3400B60704752B1084947F255
:101090003053B2F5C06F18BF0B46EDE74FF4004375
:1010A000EAE7054BE8E74FF4E103E5E7C0687804B9
:1010B00000E1F505501900200087930300207047D8
:1010C00010B50A4C0A4BA3600A4800F037FED4F86A
:1010D000883043F47003C4F88830BFF34F8FBFF3F8
:1010E0006F8FFFF7B7FFFFF7D7FD10BD00ED00E0F2
:1010F00000E0001000A0024038B54FF0E02318498E
:101100009C691A6922F480320A601A69D2071FD4D6
:101110006FF07F4405225C614FF080759C611A611D
:10112000104B114A19680023A0FB01010AF098F83E
:101130000E4BB0FBF5F205FB120084421A600AD890
:101140001A6801321A602544094B281A186038BD04
:101150005D690135E4E7064B201A186038BD00BF11
:10116000400E00205019002040420F004400002093
:10117000440E002010B50C4C0C4B22681960002A5C
:101180000EDC08B9002010BDFFF7B6FF2368002B66
:10119000F8DD4FF0E022136943F002031361F1E739
:1011A0006FF0050010BD00BF440000203C0E002081
:1011B000F8B5174C2368002B1EDB26682EBB154B99
:1011C0004FF0E0251B68AA699A421ED8124F3B686F
:1011D0005BB16FF00F009847104B3E601A682A61B0
:1011E0004FF0FF3323600020F8BD0C4A4FF0FF336F
:1011F00012682A612360F6E7074C2368002BF2D0BF
:101200000020984700232360EDE76FF00500F8BD4C
:1012100044000020440E00203C0E0020400E002020
:1012200010B5094C236823B16FF00F0098470023D5
:101230002360064A064B10684FF0E0214FF0FF3262
:1012400008611A6010BD00BF3C0E0020400E002057
:101250004400002038B5184C2268002A29DC08B95F
:10126000002038BDFFF748FF4FF0E02202E013698D
:10127000DB031AD42368002BF9DC104B1A684FF0FB
:10128000E0218B699342FCD80D4D2B6823B16FF0A0
:101290000F00984700232B600A4B4FF0E02219689B
:1012A00011614FF0FF332360DAE72368013B2360CD
:1012B000E0E76FF0050038BD44000020440E002038
:1012C0003C0E0020400E0020F8B50F4E0F4BB268C8
:1012D0009A4204460D4600F1100707D018460C4903
:1012E0004FF4F07204F07CFE0346B060002C43F82B
:1012F000275007DB074A6109012304F01F04A340BC
:1013000042F82130F8BD00BF00ED00E000100020E1
:1013100000E0001000E100E03F2808D90D4A403805
:10132000D168C0B2012383400B43D36070471F28AC
:101330004FF0804207D92038916CC0B2012383401E
:101340000B4393647047516A012383400B435362FC
:10135000704700BF000008403F2809D90E494038B7
:10136000CB68C0B20122824023EA0203CB607047FF
:101370001F284FF0804108D920388B6CC0B2012261
:10138000824023EA02038B6470474B6A0122824049
:1013900023EA02034B6270470000084010B507289B
:1013A0000AD8DFE800F00C09092333475B04BDE8E5
:1013B0001040364800F0B0B86FF0020010BD4FF09A
:1013C00080440021A36843F48023A3604FF47A7023
:1013D000FFF7D0FE03E0FFF7EBFE063052D1A36823
:1013E0005901F8D5FFF71CFF002010BD00214FF474
:1013F0007A70FFF7BFFE4FF0804403E0FFF7D8FE9E
:1014000006303FD1A3689A00ECD4F7E74FF0804450
:101410000021A36843F40023A3604FF47A70FFF720
:10142000A9FE03E0FFF7C4FE06302BD1A3681B0121
:10143000F8D5D7E74FF080440021A36843F4801328
:10144000A3604FF47A70FFF795FE03E0FFF7B0FE5C
:10145000063017D1A368D800C4D4F7E74FF0804412
:101460000021A36843F40033A3604FF47A70FFF7C0
:1014700081FE03E0FFF79CFE063003D1A3689B01C9
:10148000B0D4F7E76FF0090010BD00BFE8D8011035
:101490003F2809D940380F49C0B2012282408A60F2
:1014A0008B681A42FCD170471F280AD92038C0B275
:1014B00001224FF0804182404A644B6C1A42FCD1B9
:1014C000704701224FF0804182404A604B681A42C7
:1014D000FCD1704700000840C10710B5044608D48D
:1014E000A2070BD463070ED42046BDE8104000F0DD
:1014F000F1BF0020FFF730FFA207F3D50120FFF76F
:101500002BFF6307F0D54020FFF726FF2046BDE8FC
:10151000104000F0DFBF00BF70B57F4B05689D42F3
:10152000044637D003F580539D4220D003F5EE23C7
:1015300003F580639D427FD07848281AB0FA80F086
:101540004009C000FFF7C8FF744B22689A4215D0CB
:101550006268217A284600F04BF9D0B9637A042BEF
:1015600000F2D780DFE803F05A4C3E2F180002202B
:10157000FFF7B2FF694B22689A42E9D1237A012B27
:1015800000F0BB80022B00F0A580002B56D06FF03E
:10159000100070BD0120D5E72B6E626823EA0203BC
:1015A0002B666B6E13436B66D5F8B83023EA0203E3
:1015B000C5F8B830594BA17A9D4239D02846BDE8CC
:1015C000704000F0FFB82B6E626813432B666B6EA1
:1015D00023EA02036B66D5F8B83023EA0203C5F8A4
:1015E000B830E7E72B6E626823EA02032B666B6E66
:1015F00013436B66D5F8B8301343C5F8B830D9E754
:101600002B6E626813432B666B6E23EA02036B66D4
:10161000D5F8B8301343C5F8B830CBE72B6E626805
:1016200023EA02032B666B6E23EA02036B66C1E7B3
:101630000029ACD0002070BD042083E763683849DE
:1016400058001A010E6A00F0020002F02002024364
:1016500026EA02020A628A68C3F34003034322EACD
:1016600003038B60637A042B91D8DFE803F0261B19
:10167000031B030062682A49D300086A03F01003C1
:1016800002F00106334320EA03030B625601930084
:10169000086A03F0040306F04006334320EA03031C
:1016A0000B6287E71E4962680E6AD30002F00100F0
:1016B00003F0100330430343E7E7626818489300E0
:1016C0005101066A03F0040301F040010B43334368
:1016D00003626FE76368124958001A010E6A00F04E
:1016E000020002F02002024332430A628A68C3F316
:1016F0004003034313438B60B4E763680849580011
:101700001A010E6A00F0020002F020020243324386
:10171000A0E76FF0020070BD0080004000060840A6
:10172000006C0040084A904201D000F043B80748DE
:1017300010B4046ACA0001F00101214302F0100351
:101740000B4310BC0362704700060840006C004069
:10175000094A904201D000F02FB810B4074CCA00DB
:10176000206A02F0100201F0010142EA010320EABE
:101770000303236210BC704700060840006C004061
:1017800000F0BABE034A904201D000F017B8024AF6
:10179000D16170470006084000680040034B984242
:1017A00001D000F00DB8024BD86970470006084020
:1017B00000680040C16170470162704781647047F2
:1017C000006C704759B1012906D1D0F8C0301343DD
:1017D000C0F8C030002070476FF002007047D0F8AA
:1017E000C03023EA0203C0F8C0300020704700BFB9
:1017F000036B13430363426005292CD8DFE801F033
:101800000A12191F2503C0F888208267C266826009
:1018100000207047426142600267C267C0F88820BA
:1018200000207047026142600267C267C0F88820EA
:10183000EEE7C0F88820C26702678260E8E7C0F878
:101840008820C267C2668260E2E7C0F888208267AB
:1018500002678260DCE76FF00200704700F0F6B8C4
:1018600008B5114B98420DD0104B984211D0104B37
:10187000984215D13820FFF74FFD3420FFF708FEBE
:10188000002008BD0D20FFF747FD1020FFF700FEE8
:10189000F6E71C20FFF740FD2020FFF7F9FDEFE7FA
:1018A0006FF0010008BD00BF00D0014000E0014022
:1018B00000F00140C0B370B504460D461646FFF770
:1018C000CFFF1B4B9C4212D01A4B9C421CD01A4B90
:1018D0009C4226D13820FFF73FFD1848FFF71CFE39
:1018E000324629462046BDE8704000F049B80D2038
:1018F000FFF732FD1248FFF70FFE32462946204619
:10190000BDE8704000F03CB81C20FFF725FD0D48F5
:10191000FFF702FE324629462046BDE8704000F03F
:101920002FB86FF0010070BD4FF0FF30704700BF5F
:1019300000D0014000E0014000F00140C4D8011097
:10194000DCD80110D0D8011000F09AB800F0E8B847
:1019500000F0F6B800F012B900F018B900F02EB996
:1019600000F038B900F03EB900F044B900F046B9D3
:1019700000F04CB900F054B900F0BEB900F0CCB999
:10198000F8B5002857D00F46102115460446FFF73A
:10199000F1FF064608B13046F8BD236843F0010365
:1019A00023602046FFF7DCFF2046FFF7DBFF022124
:1019B0002046FFF7E3FF06212046FFF7DDFFDFB1FA
:1019C00023681E4A43F00203944223602FD01C4B2D
:1019D0009C420FD003F580539C4214BF4FF0FF345C
:1019E0000224184B04EB440403EBC40301225A60A5
:1019F0003046F8BD0124F4E73A4629462046FFF771
:101A00002DFF0E4B9C4209D003F580539C4210D011
:101A10000D4FBC4214BF4FF0FF370227094B07EBB5
:101A2000470103EBC10300225A603046F8BD34463B
:101A3000D7E70127F2E74FF0FF36ACE700D00140CF
:101A400000E00140E011002000F001400346A0B199
:101A50006AB9B1F5806F0DD27F29C26484BF4FF49B
:101A60000042C264C26C0A430020DA6470476FF01F
:101A7000100070476FF0020070474FF0FF30704762
:101A800000283FD010B4214AA1F574236FF41074DC
:101A90002344934213D31E4B99422FD81D4B1B68EE
:101AA0005B08B3FBF1F35B089A1EB2F5FF7F03F10D
:101AB000FF3323D8436310BC8363FFF747BF154B45
:101AC000154C1B685B08B3FBF1F14A00A4FB01C194
:101AD0004908A4FB0242013952080F2902F1FF32E2
:101AE0000CDC0F2A0ADC090289B2D2B20A43C263B3
:101AF00002680A4942F400420260D2E76FF0020035
:101B000010BC70474FF0FF30704700BF009F2400AB
:101B100040E1330050190020ABAAAAAA801A06009F
:101B20000649436B826B0868C2F30802C3F30803DB
:101B300013444008B0FBF3F0704700BF5019002079
:101B4000C8B1C1B1AAB100B5002301F1FF3E07E061
:101B5000C16A01335FFA81FC9A420EF803C005D0D6
:101B600041688907F4D518465DF804FB10465DF816
:101B700004FB104670474FF0FF30704718B1006A01
:101B8000C0F3032070474FF0FF30704798B191B118
:101B90007AB1002301F1FF3C06E001339A421CF8C0
:101BA0000310C9B2C16204D04168C906F5D5184610
:101BB0007047104670474FF0FF30704738B1836967
:101BC000826AC3F30720C2F30323C01A70474FF0A1
:101BD000FF307047C36943F08003C361C3691B06CC
:101BE000FCD47047436A43F080034362436A1B0698
:101BF000FCD4704781600261704700BFC3680B432B
:101C0000C360436913434361704700BFC36823EA5D
:101C10000103C360436923EA02034361704700BFC5
:101C2000002865D0036843F001032DE9F04103600B
:101C30000768036843F480630E46044607F4806730
:101C40000360002943D000252BE0FFF703FB236846
:101C500023F0800323600A20FFF7FCFA236813F4C3
:101C600000784FF00A002BD1FFF7F4FA236843F015
:101C7000800323600A20FFF7EDFA23689A054FF0EE
:101C80000A001DD5FFF7E6FA236843F040032360FE
:101C90000A20FFF7DFFA2368DB0525D40135AE42C1
:101CA00015D00A20FFF7D6FA236823F040032360FB
:101CB0000A20FFF7CFFA2368D9054FF00A00C4D5F0
:101CC0002368013543F0C003AE422360E9D16FF0D1
:101CD00008001FB9236823F480632360236823F07E
:101CE00001032360BDE8F0814046002FF6D1F1E703
:101CF0004FF0FF30704700BF8269D2B28A4203467C
:101D000007D3C26922F4706242EA01210020D9613E
:101D100070476FF0020070478269C2F307228A425F
:101D2000034607D3426A22F4706242EA012100208E
:101D3000596270476FF00200704700BF00F002B8B0
:101D400000F018B8D0F80031012223F00103C0F8E8
:101D50000031C0F80027D0F80031DA03FBD5D0F805
:101D6000003143F00103C0F80031D0F80031DB034B
:101D7000FBD57047D0F8003123F00103C0F80031E3
:101D8000704700BF08B52220FFF7E6FA00F01AF806
:101D9000002008BD10B500F017F804462220FFF718
:101DA000BBFA204610BD00BF014800F00FB800BFCD
:101DB00000D00440014800F03DB800BF00D004400E
:101DC00000F03EB80020704700207047F0B5154F76
:101DD000154B3D681E682A1DB24283B003D30368C9
:101DE00023F002030360114B846819680194EB1C13
:101DF0009E4201EB05000DD94C5196423A6001D04C
:101E000003B0F0BD0A4B00211B68084603B0BDE8D3
:101E1000F040184706F00302144601A904F0E0F868
:101E20002A19EAE7301200202C1200202812002084
:101E3000341200204368DB07FCD58068704700BF80
:101E400080B32DE9F041032982B00E46074626D91A
:101E5000A1F1040828F0030504460544FFF7AAFF92
:101E6000AC422060019004F10404F7D128F003088B
:101E700008F1040816F0030603D1002002B0BDE803
:101E8000F081FFF797FF3246034601A907EB0800F0
:101E9000019304F0A5F8002002B0BDE8F0814FF0F6
:101EA0000008E7E74FF0FF30704700BF08B5164B5A
:101EB000984210D0154B984214D0154B984218D028
:101EC000144B98421CD14420FFF7E2FA4420FFF75C
:101ED00023FA002008BD0B20FFF7DAFA0920FFF7EC
:101EE0001BFAF6E70C20FFF7D3FA0A20FFF714FAE3
:101EF000EFE71C20FFF7CCFA2120FFF70DFAE8E707
:101F00006FF0020008BD00BF002004400030044014
:101F1000004004400014084070B504460E461546C3
:101F2000FFF7C4FFA8BB022D2DD0042D18D0204BE5
:101F30009C421BD01F4B9C422CD01F4B9C4230D04C
:101F40001E4B9C4223D11E48FFF7E6FA4420FFF7C0
:101F500003FA2A4631462046BDE8704000F0F8B842
:101F60000620FFF71BFA124B9C42E3D11548FFF7FE
:101F7000D3FA0920FFF7F0F92A4631462046BDE89A
:101F8000704000F0E5B80520FFF708FACFE76FF0E2
:101F9000020070BD0C48FFF7BFFA0A20FFF7DCF91A
:101FA000D7E70A48FFF7B8FA2120FFF7D5F9D0E7BD
:101FB0000020044000300440004004400014084069
:101FC00094D80110B8D80110ACD80110A0D80110D5
:101FD000314B984210B5044615D003F58053984212
:101FE00011D003F5805398420DD003F57533984214
:101FF00006D10523022A436114D0042A32D08AB1C3
:102000006FF0020010BD042AFAD0204600F0D8F884
:102010000028F7DD236843F40043236023681B0393
:10202000FCD510BD4FF4E103B3FBF1F301FB03F268
:10203000C2F5E10213B1B2EB510F00D90133174AD7
:102040001361106800F44030B0F5803F05D013688C
:1020500013F4403FD4D14FF4E100104B1B69B0FBA7
:10206000F3F0D5E7036843F4803303600368B1F508
:10207000166F43F4001303600AD9002343614FF441
:102080008033B3FBF1F301FB03F2C2F58032D1E7F9
:1020900001234361F3E700BF00200440001408401F
:1020A000124B98421CD003F58053984218D003F588
:1020B0008053984214D003F57533984212D10368C7
:1020C00003F44033B3F5803F05D0036813F4403F79
:1020D00008D14FF4E103064A1069B3FBF0F07047F2
:1020E00000F0BAB86FF00200704700BF0020044053
:1020F0000014084000F0F0B800F00EB900F030B95C
:1021000000F084B900F09EB900F008B800F012B8F1
:1021100000F0B6B900F0B8B900F0BCB910B504468B
:102120002046FFF7F5FF0028FAD02046BDE8104012
:10213000FFF7E6BF38B504460D462046FFF7EAFF35
:102140000028FAD029462046BDE83840FFF7DABF1C
:102150001A4B984270B504460D4616460BD003F54F
:102160008053984207D003F58053984203D003F57B
:10217000753398421FD101212046FFF7CDFF00B1F2
:1021800070BD08212046FFF7B5FF0028F8D10146B1
:102190002046FFF7B3FF0028F2D101462046FFF7A3
:1021A000ABFF0028ECD1324629462046FFF710FF4E
:1021B00000EAE07070BD6FF0020070BD00200440C6
:1021C000224B98420BD003F58053984207D003F579
:1021D0008053984203D003F57533984232D10523DA
:1021E000012A10B4436123D0022A14D01AB16FF02F
:1021F000020010BC7047164B1A685208B2FBF1F38C
:1022000001FB132213B1B2EB510F00D9013310BC03
:102210000361FFF745BF04684FF4E10344F4003461
:10222000B3FBF1F301FB03F2C2F5E1020460E9E75D
:102230000468084AB2FBF1F344F48034046001FB03
:102240001322DFE76FF00200704700BF0020044058
:1022500050190020C06878041C4B98420BD003F53D
:102260008053984207D003F58053984203D003F57A
:102270007533984222D1036803F44033B3F5803FAD
:1022800017D0036813F4403F0CD0036803F44033C5
:10229000B3F5003F08BF4FF4E10312D10069B3FB6F
:1022A000F0F070470A4B00691B685B08B3FBF0F065
:1022B0007047084B0069B3FBF0F070476FF0020005
:1022C000704703686FF00200704700BF00200440B1
:1022D00050190020C06878040E4A904203460BD083
:1022E00002F58052904207D002F58052904203D00E
:1022F00002F5753290420AD10539032907D81A68C8
:1023000022F4406242EA812200201A6070476FF096
:102310000200704700200440104B98420BD003F598
:102320008053984207D003F58053984203D003F5B9
:102330007533984208D151B1012905D1036843F49E
:1023400080530360002070476FF0020070470368FD
:1023500023F4805303600020704700BF0020044036
:10236000294B98420BD003F58053984207D003F5D0
:102370008053984203D003F57533984241D1042924
:102380003FD8DFE801F0111724310300036843F060
:1023900010030360036843F020030360036843F005
:1023A0004003036000207047036823F010030360BC
:1023B00000207047036843F010030360036823F0B4
:1023C00020030360036823F040030360EAE7036827
:1023D00043F010030360036823F0200303600368E5
:1023E00043F040030360DDE7036843F0100303603C
:1023F000036843F020030360036823F04003036095
:10240000D0E76FF002007047002004400C4B984268
:102410000BD003F58053984207D003F580539842C0
:1024200003D003F57533984204D14368DB0604D426
:10243000006A70476FF0020070476FF00C00704741
:10244000002004400D4A904203460BD002F5805212
:10245000904207D002F58052904203D002F57532C7
:10246000904205D1586810F0800004D1196270477D
:102470006FF0020070476FF00B00704700200440BF
:102480004068C0F3032070474068C0F30330C0F1D8
:10249000080070470E4A904203460BD002F5805266
:1024A000904207D002F58052904203D002F5753277
:1024B000904209D14A1E072A06D81A6822F00F0254
:1024C00011430020196070476FF00200704700BF91
:1024D0000020044010B5064C217831B905484FF46E
:1024E000007202F011FA01232370002010BD00BF1A
:1024F000381200203C1400200328F8B507461DD8E8
:1025000018BB144D2846FFF749F9044601462846F2
:10251000FFF738F98CB1104E104D06EBC71605EBDE
:10252000C715E30703D52B680BB1306898476408DB
:1025300006F1040605F10405F3D1F8BD0849094880
:102540005A22FEF799FB0025DCE7074B421E53F8A1
:102550002250D7E7008000403C1200203C140020AD
:10256000F4D8011044D9011064D9011040EA0103E4
:102570009B0710B501D1032A17D8844601F1FF3E0D
:1025800007E01EF8011F03F8011B541E29B19C46E9
:1025900022466346002AF4D110BD9444002CFBD09F
:1025A00003F8011B6345FBD110BD8E468446DEF85F
:1025B0000040A4F1013323EA040313F0803F714685
:1025C0000EF1040EDAD1043A032A4CF8044BEED88B
:1025D0007146D3E70EB410B59DB06FF000411FAB4C
:1025E00004910791094953F8042B02900690084C76
:1025F0000868019302A9059400F072F8029B00227A
:102600001A701DB0BDE8104003B07047C805002027
:102610000802FFFF10B50C46B1F90E1004F05CF98A
:10262000002803DB236D0344236510BDA38923F435
:102630008053A38110BD00BF2DE9F0410C46B1F9D4
:102640000C101F46CB05054616460BD421F48051CD
:10265000A1813B46B4F90E1032462846BDE8F04150
:1026600000F020B8B4F90E100223002204F01EF985
:10267000B4F90C10EAE700BF10B50C46B1F90E1022
:1026800004F014F9B4F90C30421C0EBF23F480534B
:1026900043F480532065A38110BD00BFB1F90E1033
:1026A00003F0A4BA38B50C46084D844611462046BE
:1026B0001A4600232B606446FEF75EFB431C00D0E5
:1026C00038BD2B68002BFBD0236038BD801600205E
:1026D000014B1868704700BFC805002000000000CB
:1026E0002DE9F04FDFB00C46099191460D938346DA
:1026F00002F0CCF903681A93184603F021FD082272
:10270000189000212EA802F0FFF8A3891A0603D51D
:102710002369002B00F090879FED7F7B0023CDE99C
:102720003333CDE91B33CDE91D338DED167B35AA4F
:1027300013933292904619930A93CDF81CB04D46EC
:10274000079F2E46764BD3F8E44002F099F90346F2
:102750002EA8009032462AA93846A047002800F04B
:10276000A980C0F29F802A9A252A034601D01E44E0
:10277000E8E7771B044640F0A08000238DF89F30E7
:1027800099460B934FF0FF3273780892741C013412
:10279000A3F120025A2A00F2C580DFE812F0EE020F
:1027A000C300C300EA02C300C300C3006A00C30041
:1027B000C30051026002C3005C02FC02C300F802C5
:1027C0005B005B005B005B005B005B005B005B0031
:1027D0005B00C300C300C300C300C300C300C30049
:1027E0004401C300D0011603440144014401C30065
:1027F000C300C300C300E602C300C3006502C300F8
:10280000C300C300FA01C300D302C300C3000E0714
:10281000C300C300C300C300C300C300C300C300A0
:102820004401C300D0012C0244014401440196023A
:102830002C027F00C300AF02C300A0020307C10245
:102840007F00C300FA017D000907C300C3003207FF
:10285000C3007D00A3F13002002114F8013B01EB1D
:10286000810102EB4101A3F13002092AF5D90B9154
:102870008EE7079F384602F009F943681D93184612
:1028800003F05EFC1E900646384602F0FFF88368AF
:102890001B93002E40F01E86237878E7237849F0BA
:1028A000200974E7082200212EA802F02DF8012348
:1028B0001E4447E7771B044611D0349B3B443493B6
:1028C000339B0133072BC8E90057339318DC08F119
:1028D00008080A9B3B440A93002C7FF44EAF349BBC
:1028E000DDF81CB0002B41F0F381099B9B8903F0BC
:1028F0004003002B41F0C3830A985FB0BDE8F08F1E
:102900000999079832AA04F0C1F90028EDD10DF118
:10291000D408DEE7AFF300800000000000000000F4
:102920005C040020CDE90E34002BD8D000228DF8B5
:10293000143101238DF89F2006930C929B46089238
:1029400014921092129245AD19F0020302D006992A
:102950000231069119F08407349C05D10B99069831
:102960000E1A002E00F3AA8082B10122C8F80420BA
:10297000339A013201340DF19F01072A34943392C6
:10298000C8F8001000F3058408F1080883B1339BF0
:1029900028AA01330234C8F80020072B4FF00202A6
:1029A00034943393C8F8042000F3E78308F108084F
:1029B000802F00F0C082089BA3EB0B06002E00F3D3
:1029C000FF8219F4807F40F01982339BC8F80050D1
:1029D00001335C44072BC8F804B03494339300F3FC
:1029E0006C8308F1080819F0040F05D00B9B069AB8
:1029F0009D1A002D00F3DC83DDE90A3206998A4234
:102A0000ACBF9B185B180A93002C40F0188300237E
:102A100033930C9B1BB10C99079803F033FE0DF117
:102A2000D4080F9D8CE6CDE90E340D9B073323F0BF
:102A30000703B3EC027B57EC176B0D9327F00043B1
:102A400023938DED227ADDE922ABB14B4FF0FF32BB
:102A5000504659468DED167B08F0C4FB002840F027
:102A60004685AB4B4FF0FF325046594608F09CFB71
:102A7000002840F03C85002200233046394608F00B
:102A800089FB002841F051809DF89F20A14DA24B69
:102A900029F080090E994729C8BF1D46002303214C
:102AA0000C9306918B460893149310931293002A6B
:102AB0003FF44AAF069B0133069345E7102E339A45
:102AC00041F3768295482195CDE91F372146099D2E
:102AD000079C15904FF0100A074604E0103E102E98
:102AE00008F1080816DD01321031072AC8E9007A1A
:102AF000CDE93321F2DD32AA294620460DF1D40872
:102B000004F0C4F8002840F0F086103E102EDDE9F5
:102B10003321E8DCDDE91F37219D0C460132159990
:102B2000C8F800103444072ACDE93324C8F80460FB
:102B300000F3CA869DF89F2008F1080814E70D9A53
:102B4000432BCDE90E3402F1040403D019F0100F29
:102B500000F05C850822002130A801F0D5FE0D9B15
:102B600007981A6845AD30AB294601F01FFFB0F158
:102B7000FF3F834601F07E8220EAE0730693002245
:102B80000D948DF89F200C9208921492109212923C
:102B9000DAE60D9E56F8045BCDE90E3400238DF87D
:102BA0009F30002D00F057850E9B532B00F0B98607
:102BB00019F01003129340F0B486089B5A1C01F0E0
:102BC000928012991A46284603F0BAF90C90002810
:102BD00001F0ED820C9B0D96A3EB050B129B089365
:102BE0002BEAEB71149310930C9373239DF89F20A1
:102BF00006910E935BE719F0200FCDE90E3400F03B
:102C0000EC800D9B073323F007031A46596852F8EE
:102C1000083B0D920A460029C0F219840899013137
:102C200000F09C8253EA020129F0800440F0978270
:102C3000089A002A40F09882A14693465EAD51E181
:102C40000D9B53F8042B0B92002A80F224840B9ADC
:102C50000D9352420B92237849F0040997E52B23F8
:102C60008DF89F30237892E5CDE90E3449F01009B4
:102C700019F0200200F0B4830D9B073323F0070303
:102C800019465A6851F8083B0D9129F480640021D7
:102C90000020089D8DF89F006F1C00F00C8153EA06
:102CA000020024F0800940F00581002D40F02786C5
:102CB000002940F0C88314F0010B00F0F0833023AA
:102CC0008DF877310DF277150CE12378682B03BF6F
:102CD000637849F40079013449F0400957E519F067
:102CE000200F0F9400F0E5830D9B0A9A1B681A6071
:102CF000D2175A600D9B04330D9392E623786C2B08
:102D000003BF637849F02009013449F010093EE51A
:102D1000FFFFEF7F70D9011074D90110C4D90110E1
:102D20000D9A0F9452F8043B0D9247F63002ADF81D
:102D3000A0207820A84A199249F00204002202211A
:102D40000E90A5E7CDE90E3449F0100414F02002EE
:102D500000F055830D9B073323F0070319465A688B
:102D600051F8083B0D91012192E7237849F00809B9
:102D70000DE5237849F0010909E59DF89F202378A6
:102D8000002A7FF404AD20228DF89F20FFE42378F1
:102D900049F08009FBE4214611F8013B2A2B01F0A0
:102DA0002982A3F13002092A0C4698BF002101F2C2
:102DB000308114F8013B01EB810102EB4101A3F1E9
:102DC0003002092AF5D90891E2E449F0100919F016
:102DD000200FCDE90E347FF414AF0D9A19F0100FC7
:102DE00052F8043B0D9240F0608319F0400F00F060
:102DF000588343F3C03211461BB20CE70E9B652B80
:102E000040F36681DDE916010022002308F0B8F9DD
:102E1000002800F01182339B704AC8F8002001336B
:102E200001340122072B34943393C8F8042000F3B3
:102E30006B8508F10808299B139A934280F2268338
:102E4000189B1A9A1C44C8E90023339B349401331D
:102E5000072B339300F3E48308F10808139B5D1EEE
:102E6000002D7FF7C0AD102D339B40F3AD855C4F37
:102E7000DDF81CB0DDF824A01597102605E008F158
:102E80000808103D102D40F3A18501331034072BA5
:102E9000C8E90076CDE93334F1DD32AA514658460F
:102EA00003F0F4FE002840F0C082DDE933340DF178
:102EB000D408E6E74C46012900F0518102295EADB5
:102EC0001ED1199803F00F011B09415C05F8011D83
:102ED00043EA0273120953EA0201F3D15EABA14641
:102EE000A3EB050B08999DF89F2059454FF000036F
:102EF000B8BF59460C930691149310931293D6E5DC
:102F000003F00701DB0843EA4273D208303153EA89
:102F10000206284605F8011DF2D1E607DED5302964
:102F2000DCD03023023805F8013C5EABA146A3EBB0
:102F3000000B0546D6E70B9B069A9E1A002E7FF7DC
:102F40003AAD102E339B41F39F802548DDF81CA03D
:102F50001590214610271A46044604E0103E102E14
:102F600008F1080816DD01321031072AC8E90047C8
:102F7000CDE93321F2DD099932AA50460DF1D4088A
:102F800003F084FE002840F0B284103E102EDDE9EC
:102F90003321E8DC0C4613460133159AC8F80020AB
:102FA0003444072BCDE93334C8F8046000F31C85A2
:102FB000089BA3EB0B06002E08F108087FF701AD74
:102FC000074A339B1592102E2ADD2246079F099C43
:102FD0004FF0100A0BE000BF80D90110B0D90110EA
:102FE000B4D90110103E102E08F1080817DD013386
:102FF0008E491032072BC8E9001ACDE93332F1DDD2
:1030000032AA2146384603F041FE002840F00C82E7
:10301000103E102EDDE933320DF1D408E7DC144602
:103020000133159AC8F800203444072BCDE9333416
:10303000C8F8046000F3C78108F10808C1E40999E1
:10304000079832AA03F022FE00283FF4E0ACDDF836
:103050001CB0EAE1339B7649C8F800100133013413
:103060000121072B34943393C8F8041000F37385BF
:1030700008F10808002A40F0E584139A09F00103DA
:1030800013433FF4B0AC189B1A9A1C44C8E90023C0
:10309000339B34940133072B339300F3438608F1B9
:1030A0000808139AC8F8005001331444072BCDE9DF
:1030B0003334C8F804207FF794AC0999079832AAF2
:1030C00003F0E4FD0028C2D1349C0DF1D4088AE459
:1030D000139B339E012B04F1010406F1010608F154
:1030E000080740F329810123072ECDE93364C8F88E
:1030F0000050C8F8043000F3B181189B1A9A0136C9
:103100001C44072EC7E90023CDE9336400F3B281E4
:103110000837139BDDE9160103F1FF380022002375
:1031200008F02EF8002840F0218101360135444492
:10313000072ECDE933643D60C7F8048000F30A81AF
:1031400008371C9B7B6001361C44072E2CABCDE955
:1031500033643B60B1DC07F1080844E44C460A2BB9
:1031600072F1000180F0538330338DF87731A1463E
:103170004FF0010B0DF27715B4E60999079832AAC2
:1031800003F084FD00287FF462AF349C0DF1D40875
:103190000EE409990798159332AA03F077FD0028E9
:1031A0007FF455AF349C159B0DF1D408FFF7EEBBAF
:1031B000102D339B40F331871E4FDDF81C90DDF856
:1031C00024A01597102604E0103D102D08F10808E2
:1031D00016DD01331034072BC8E90076CDE933340E
:1031E000F2DD32AA514648460DF1D40803F04EFDF7
:1031F000002840F0E783103D102DDDE93334E8DC92
:103200000133159A2C44072BC8E90025CDE9333446
:103210007FF7F2AB0999079832AA03F037FD00282F
:103220007FF415AF349CFFF7E7BB00BFB4D90110A2
:10323000B0D90110C4D90110299A002A7FF70AAF2A
:10324000DDE912739F42A8BF1F46002F05EB030B59
:103250000BDD339B01333C44072BC8E90057349402
:10326000339300F3408608F10808129E002FA8BF90
:10327000F61B002E00F30082129B19F4806F2B4482
:103280009A4640F02182299D139B9D4203DB19F051
:10329000010F00F06E84189B1A9A1C44C8E90023A1
:1032A000339B34940133072B339300F3738608F177
:1032B0000808139BABEB0A065D1BAE42A8BF2E4667
:1032C000002E0DDD339BC8F800A001333444072BDA
:1032D000C8F804603494339300F36E8608F108084C
:1032E000002EA8BFAD1B002D7FF77DAB102D339BAB
:1032F00040F36A83AD4FDDF81CB0DDF824A01597CC
:10330000102605E008F10808103D102D40F35E83FB
:1033100001331034072BC8E90076CDE93334F1DDF1
:1033200032AA5146584603F0B1FC00287DD1DDE9B0
:1033300033340DF1D408E7E719F0010F7FF4D3AE71
:103340000123072ECDE93364C8F80050C8F80430D3
:103350007FF7F7AE0999079832AA03F097FC002887
:103360007FF475AEDDE9336435AFEAE6139B012BDC
:103370007FF7E7AE112B8D4B159340F35783CDF8B4
:103380002090DDF81CA0DDF824B01025994606E059
:103390000837A8F11008B8F1100F40F34583013643
:1033A0001034072EC7E90095CDE93364F0DD32AA69
:1033B0005946504603F06AFC002840F09882DDE947
:1033C000336435AFE5E70999079832AA03F05EFC4C
:1033D00000287FF43CAE349C0DF1D408FFF7F1BA1D
:1033E0000D9951F8043B0D9119F010017FF44DAC8B
:1033F00019F0400000F062839BB20A4645E40D9943
:1034000051F8043B0D9114F010010BD114F0400061
:1034100003D00A469BB201213AE414F400721CBFA7
:10342000DBB20246012133E4BB460C9B002B3FF488
:103430005CAA0C99584603F025F9099B9B8903F077
:103440004003FFF756BADDF820B05EAD4AE55B42B7
:1034500062EB42024C462D2001211AE4099907989B
:1034600032AA03F013FC00287FF4F1ADDDE93364E8
:1034700035AF42E60999079832AA03F007FC002805
:103480007FF4E5ADDDE9336435AF42E619F0010FB5
:103490003FF4A9AAD4E40D932378FFF778B95EAD81
:1034A00020E519F4007F40F07383DA171146FFF727
:1034B000B2BB19F0100F40F0B18219F0400F40F08C
:1034C000618319F4007F00F0A9820D9B0A9A1B68A2
:1034D0001A700FE41B9A2378002A3FF458A9127837
:1034E000002A3FF454A949F48069FFF750B9DDE997
:1034F000160102460B4607F075FE002840F00D86C7
:103500000E9B612B00F00485412B00F08085089B09
:10351000013300F015840E9B23F02003472B04D1C8
:10352000089B002B08BF01230893DDE9160149F42D
:10353000807200291592CDF818904FF00003C0F268
:103540001F85CDE924011F930C930E9B413B252B36
:1035500000F22683DFE813F0FF032403240324038F
:10356000F803FC0324032403240324032403240377
:103570002403240324032403240324032403240313
:103580002403240324032403240324032403240303
:1035900024032403240324032403240324032403F3
:1035A000F803FC03CDE90E34FFF762BBB4D9011078
:1035B000CDE90E344C46FFF7C9BBCDE90E34BD4B07
:1035C000199319F0200200F008810D9B073323F0B6
:1035D000070319465A6851F8083B0D9119F0010F7D
:1035E0000AD053EA020107D00E998DF8A1103021BC
:1035F00049F002098DF8A01029F480640221FFF738
:1036000047BBCDE90E34AC4B1993DAE70D9B1B6831
:103610008DF81431012306939B4645ADFFF7AFBAF1
:103620000999079832AA03F031FB00287FF40FAD07
:10363000349C0DF1D40811E44021584600F020FEDE
:10364000099B18601861002800F01086099A402331
:103650005361FFF761B8089B0C95062B294628BFDC
:10366000062308952A460693944D0D969B46149181
:1036700010911291FFF71BBA102E339B40F3E78590
:103680008F48DDF81CA0159042462146A846099CAB
:103690001027054604E00832103E102E40F3238226
:1036A00001331031072BC2E90057CDE93331F2DD88
:1036B00032AA2146504603F0E9FA002840F017816B
:1036C000DDE9333135AAE7E721461C46109BCDF8EA
:1036D00020B0CDF838904246794FDDF85090DDF8B3
:1036E0007880DDF86CA0DDF81CB083B3B9F1000F71
:1036F00000F0FF8009F1FF3933981D9B01304144F0
:103700000728C2E900383491339075DC0832089BF1
:103710009AF800001E1B8642A8BF0646002E0CDD4C
:103720003398013031440728C2E900463491339080
:1037300000F367819AF800000832002EACBF851BA9
:103740000546002D13DC0444109B002BCED1B9F1AB
:10375000000FCFD1DDF820B0CDF86CA0A246DA453D
:10376000DDF8389090460C4628BFDA468BE5102DE0
:10377000339840F33C8523463E462C461D4604E0E4
:10378000103C102C02F1080216DD0130103110231C
:103790000728CDE9330117605360F1DD099932AA9A
:1037A000584603F073FA00287FF43FAE103C102C0B
:1037B000DDE9330135AAE8DC2B4625461C460130FD
:1037C00029440728CDE933011660556000F37D8355
:1037D0009AF8000008320444B6E70D9951F8043B0A
:1037E0000D9119F010017FF4F9AE19F0400000F0CE
:1037F0005F819BB20A46F1E6099932AA584603F066
:1038000045FA00287FF411AE349935AA7FE704F415
:10381000806B0021CDF83080DFF8A890DDF86C8057
:1038200006945EAD4FF0CC3A05278C465E4605E027
:103830000A2B72F1000233D35B462246991841F1FC
:103840000001A9FB010424F0030000EB9400091A15
:10385000581A62F1000E0AFB00F4A0FB09B009FB44
:103860000E440BF0010E0444AEFB070E40184FEA65
:103870005B0B303005F8010C4BEAC47B0CF1010CFA
:10388000013D6408002ED3D098F800108C45CFD1AC
:10389000BCF1FF0FCCD00A2B72F1000280F0368110
:1038A000CDF86C80069CDDF83080CDF84CC0FFF779
:1038B00015BB00BF94D9011080D90110A8D90110FF
:1038C000B4D90110CDCCCCCC09990798159332AA64
:1038D00003F0DCF900287FF4BAAB9DF89F20349CFC
:1038E000159B0DF1D408FFF73FB8A3469DE5D346DD
:1038F0009BE5109B013B0AF1FF3A1093FCE601297E
:103900004C467FF4DBAA2FE40999079832AA03F00A
:10391000BDF900287FF49BAB349C0DF1D408FFF770
:103920008ABA30AF0822002138462B9500F0ECFF10
:10393000089B581C00F0C9800024CDF81890A346BD
:10394000DDF81C909A460CE045A9484601F02EF897
:10395000411C584400F08E83504508DC00F041843F
:1039600083462B9A12593B460434002AECD1DDF8E9
:103970001890BBF1000F00F0DD80BBF1630F00F386
:10398000B98100230C9345AD08220021384600F090
:10399000BBFF079800975B462BAA294601F062F906
:1039A000834540F05A84002305F80B302BEAEB7175
:1039B0009DF89F200D9608930691149310931293EF
:1039C000FFF775B8CB4630E5744A15920133159A66
:1039D000C8F800202C44072BC8F80450CDE9333434
:1039E0007EF7FFAFFFF769BB0999079832AA03F08A
:1039F0004DF900287FF42BAB349C0DF1D408FEF771
:103A0000DABF099932AA584603F040F900287FF43A
:103A10000CAD9AF80000349935AA8EE60D9B0A9AEF
:103A20001B681A60FFF766B9DDF82090159B3B60B4
:103A300001364444072ECDE93364C7F804807FF78C
:103A40007FAB87E4189B1A991C44C8E90013339B89
:103A500034940133072B339300F3648108F1080891
:103A6000002ABFF61EAB564210324C4A159280F225
:103A7000E782AA461027154605E008F10808103E1F
:103A8000102E40F3DC8201331034072BC8E90057B5
:103A9000CDE93334F1DD0999079832AA03F0F6F83D
:103AA00000287FF4D4AADDE933340DF1D408E6E729
:103AB00019F400721CBFDBB202468FE519F40072E4
:103AC0001CBFDBB20246FFF7E0B80023079800975F
